{
  "_format": "hh-sol-artifact-1",
  "contractName": "Token",
  "sourceName": "contracts/Token.sol",
  "abi": [
    {
      "inputs": [
        {
          "internalType": "uint256",
          "name": "minContribution",
          "type": "uint256"
        },
        {
          "internalType": "address payable",
          "name": "recipient",
          "type": "address"
        },
        {
          "internalType": "uint256",
          "name": "targetAmount",
          "type": "uint256"
        }
      ],
      "stateMutability": "nonpayable",
      "type": "constructor"
    },
    {
      "anonymous": false,
      "inputs": [
        {
          "indexed": false,
          "internalType": "address",
          "name": "sender",
          "type": "address"
        },
        {
          "indexed": false,
          "internalType": "uint256",
          "name": "amount",
          "type": "uint256"
        }
      ],
      "name": "Received",
      "type": "event"
    },
    {
      "inputs": [],
      "name": "contractTargetAmount",
      "outputs": [
        {
          "internalType": "uint256",
          "name": "",
          "type": "uint256"
        }
      ],
      "stateMutability": "view",
      "type": "function"
    },
    {
      "inputs": [],
      "name": "executeTransaction",
      "outputs": [],
      "stateMutability": "nonpayable",
      "type": "function"
    },
    {
      "inputs": [],
      "name": "minimumContribution",
      "outputs": [
        {
          "internalType": "uint256",
          "name": "",
          "type": "uint256"
        }
      ],
      "stateMutability": "view",
      "type": "function"
    },
    {
      "inputs": [],
      "name": "name",
      "outputs": [
        {
          "internalType": "string",
          "name": "",
          "type": "string"
        }
      ],
      "stateMutability": "view",
      "type": "function"
    },
    {
      "inputs": [],
      "name": "owner",
      "outputs": [
        {
          "internalType": "address",
          "name": "",
          "type": "address"
        }
      ],
      "stateMutability": "view",
      "type": "function"
    },
    {
      "inputs": [
        {
          "internalType": "address",
          "name": "wallet",
          "type": "address"
        }
      ],
      "name": "participantContribution",
      "outputs": [
        {
          "internalType": "uint256",
          "name": "",
          "type": "uint256"
        }
      ],
      "stateMutability": "view",
      "type": "function"
    },
    {
      "inputs": [],
      "name": "recipientAddress",
      "outputs": [
        {
          "internalType": "address",
          "name": "",
          "type": "address"
        }
      ],
      "stateMutability": "view",
      "type": "function"
    },
    {
      "inputs": [],
      "name": "symbol",
      "outputs": [
        {
          "internalType": "string",
          "name": "",
          "type": "string"
        }
      ],
      "stateMutability": "view",
      "type": "function"
    },
    {
      "stateMutability": "payable",
      "type": "receive"
    }
  ],
  "bytecode": "0x60806040526040518060400160405280600e81526020017f457363726f772053757072656d65000000000000000000000000000000000000815250600090816200004a9190620003dd565b506040518060400160405280600581526020017f455343525300000000000000000000000000000000000000000000000000000081525060019081620000919190620003dd565b506000600255348015620000a457600080fd5b5060405162000f8738038062000f878339818101604052810190620000ca91906200055f565b33600360006101000a81548173ffffffffffffffffffffffffffffffffffffffff021916908373ffffffffffffffffffffffffffffffffffffffff1602179055508060068190555081600560006101000a81548173ffffffffffffffffffffffffffffffffffffffff021916908373ffffffffffffffffffffffffffffffffffffffff16021790555082600281905550505050620005bb565b600081519050919050565b7f4e487b7100000000000000000000000000000000000000000000000000000000600052604160045260246000fd5b7f4e487b7100000000000000000000000000000000000000000000000000000000600052602260045260246000fd5b60006002820490506001821680620001e557607f821691505b602082108103620001fb57620001fa6200019d565b5b50919050565b60008190508160005260206000209050919050565b60006020601f8301049050919050565b600082821b905092915050565b600060088302620002657fffffffffffffffffffffffffffffffffffffffffffffffffffffffffffffffff8262000226565b62000271868362000226565b95508019841693508086168417925050509392505050565b6000819050919050565b6000819050919050565b6000620002be620002b8620002b28462000289565b62000293565b62000289565b9050919050565b6000819050919050565b620002da836200029d565b620002f2620002e982620002c5565b84845462000233565b825550505050565b600090565b62000309620002fa565b62000316818484620002cf565b505050565b5b818110156200033e5762000332600082620002ff565b6001810190506200031c565b5050565b601f8211156200038d57620003578162000201565b620003628462000216565b8101602085101562000372578190505b6200038a620003818562000216565b8301826200031b565b50505b505050565b600082821c905092915050565b6000620003b26000198460080262000392565b1980831691505092915050565b6000620003cd83836200039f565b9150826002028217905092915050565b620003e88262000163565b67ffffffffffffffff8111156200040457620004036200016e565b5b620004108254620001cc565b6200041d82828562000342565b600060209050601f83116001811462000455576000841562000440578287015190505b6200044c8582620003bf565b865550620004bc565b601f198416620004658662000201565b60005b828110156200048f5784890151825560018201915060208501945060208101905062000468565b86831015620004af5784890151620004ab601f8916826200039f565b8355505b6001600288020188555050505b505050505050565b600080fd5b620004d48162000289565b8114620004e057600080fd5b50565b600081519050620004f481620004c9565b92915050565b600073ffffffffffffffffffffffffffffffffffffffff82169050919050565b60006200052782620004fa565b9050919050565b62000539816200051a565b81146200054557600080fd5b50565b60008151905062000559816200052e565b92915050565b6000806000606084860312156200057b576200057a620004c4565b5b60006200058b86828701620004e3565b93505060206200059e8682870162000548565b9250506040620005b186828701620004e3565b9150509250925092565b6109bc80620005cb6000396000f3fe60806040526004361061007f5760003560e01c80638da5cb5b1161004e5780638da5cb5b1461024e578063937e09b11461027957806395d89b41146102a4578063b8626082146102cf5761019f565b806306fdde03146101a45780630eb288f1146101cf57806333c74e79146101e65780635aff5999146102235761019f565b3661019f576002543410156100c9576040517f08c379a00000000000000000000000000000000000000000000000000000000081526004016100c090610613565b60405180910390fd5b60065447111561010e576040517f08c379a00000000000000000000000000000000000000000000000000000000081526004016101059061067f565b60405180910390fd5b34600460003373ffffffffffffffffffffffffffffffffffffffff1673ffffffffffffffffffffffffffffffffffffffff168152602001908152602001600020600082825461015d91906106d8565b925050819055507f88a5966d370b9919b20f3e2c13ff65706f196a4e32cc2c12bf57088f88525874333460405161019592919061075c565b60405180910390a1005b600080fd5b3480156101b057600080fd5b506101b96102fa565b6040516101c69190610804565b60405180910390f35b3480156101db57600080fd5b506101e4610388565b005b3480156101f257600080fd5b5061020d60048036038101906102089190610857565b6103c7565b60405161021a9190610884565b60405180910390f35b34801561022f57600080fd5b50610238610410565b604051610245919061089f565b60405180910390f35b34801561025a57600080fd5b5061026361043a565b604051610270919061089f565b60405180910390f35b34801561028557600080fd5b5061028e610460565b60405161029b9190610884565b60405180910390f35b3480156102b057600080fd5b506102b961046a565b6040516102c69190610804565b60405180910390f35b3480156102db57600080fd5b506102e46104f8565b6040516102f19190610884565b60405180910390f35b60008054610307906108e9565b80601f0160208091040260200160405190810160405280929190818152602001828054610333906108e9565b80156103805780601f1061035557610100808354040283529160200191610380565b820191906000526020600020905b81548152906001019060200180831161036357829003601f168201915b505050505081565b60065447101561039757600080fd5b6103c5600560009054906101000a900473ffffffffffffffffffffffffffffffffffffffff16600654610502565b565b6000600460008373ffffffffffffffffffffffffffffffffffffffff1673ffffffffffffffffffffffffffffffffffffffff168152602001908152602001600020549050919050565b6000600560009054906101000a900473ffffffffffffffffffffffffffffffffffffffff16905090565b600360009054906101000a900473ffffffffffffffffffffffffffffffffffffffff1681565b6000600254905090565b60018054610477906108e9565b80601f01602080910402602001604051908101604052809291908181526020018280546104a3906108e9565b80156104f05780601f106104c5576101008083540402835291602001916104f0565b820191906000526020600020905b8154815290600101906020018083116104d357829003601f168201915b505050505081565b6000600654905090565b47811115610545576040517f08c379a000000000000000000000000000000000000000000000000000000000815260040161053c90610966565b60405180910390fd5b8173ffffffffffffffffffffffffffffffffffffffff166108fc829081150290604051600060405180830381858888f1935050505015801561058b573d6000803e3d6000fd5b505050565b600082825260208201905092915050565b7f45746865722076616c75652062656c6f77206d696e696d756d20636f6e74726960008201527f627574696f6e0000000000000000000000000000000000000000000000000000602082015250565b60006105fd602683610590565b9150610608826105a1565b604082019050919050565b6000602082019050818103600083015261062c816105f0565b9050919050565b7f5461726765742062616c616e63652077696c6c20626520657863656564656400600082015250565b6000610669601f83610590565b915061067482610633565b602082019050919050565b600060208201905081810360008301526106988161065c565b9050919050565b6000819050919050565b7f4e487b7100000000000000000000000000000000000000000000000000000000600052601160045260246000fd5b60006106e38261069f565b91506106ee8361069f565b9250828201905080821115610706576107056106a9565b5b92915050565b600073ffffffffffffffffffffffffffffffffffffffff82169050919050565b60006107378261070c565b9050919050565b6107478161072c565b82525050565b6107568161069f565b82525050565b6000604082019050610771600083018561073e565b61077e602083018461074d565b9392505050565b600081519050919050565b60005b838110156107ae578082015181840152602081019050610793565b60008484015250505050565b6000601f19601f8301169050919050565b60006107d682610785565b6107e08185610590565b93506107f0818560208601610790565b6107f9816107ba565b840191505092915050565b6000602082019050818103600083015261081e81846107cb565b905092915050565b600080fd5b6108348161072c565b811461083f57600080fd5b50565b6000813590506108518161082b565b92915050565b60006020828403121561086d5761086c610826565b5b600061087b84828501610842565b91505092915050565b6000602082019050610899600083018461074d565b92915050565b60006020820190506108b4600083018461073e565b92915050565b7f4e487b7100000000000000000000000000000000000000000000000000000000600052602260045260246000fd5b6000600282049050600182168061090157607f821691505b602082108103610914576109136108ba565b5b50919050565b7f496e73756666696369656e742042616c616e6365000000000000000000000000600082015250565b6000610950601483610590565b915061095b8261091a565b602082019050919050565b6000602082019050818103600083015261097f81610943565b905091905056fea2646970667358221220be2292f7180619afdfc320c9bb006d461aecbf5c51b7af25484fcc365ba6ed1c64736f6c63430008180033",
  "linkReferences": {},
  "deployedLinkReferences": {}
}